{
  "_format": "hh-sol-artifact-1",
  "contractName": "MathStateMachine",
  "sourceName": "contracts/MathStateMachine/MathStateMachine.sol",
  "abi": [
    {
      "anonymous": false,
      "inputs": [
        {
          "indexed": false,
          "internalType": "uint256",
          "name": "a",
          "type": "uint256"
        },
        {
          "indexed": false,
          "internalType": "uint256",
          "name": "b",
          "type": "uint256"
        },
        {
          "indexed": false,
          "internalType": "uint256",
          "name": "result",
          "type": "uint256"
        }
      ],
      "name": "Addition",
      "type": "event"
    },
    {
      "anonymous": false,
      "inputs": [
        {
          "indexed": false,
          "internalType": "address",
          "name": "player",
          "type": "address"
        }
      ],
      "name": "NextToPlay",
      "type": "event"
    },
    {
      "inputs": [
        {
          "internalType": "uint256",
          "name": "_number",
          "type": "uint256"
        }
      ],
      "name": "add",
      "outputs": [
        {
          "internalType": "uint256",
          "name": "",
          "type": "uint256"
        }
      ],
      "stateMutability": "nonpayable",
      "type": "function"
    },
    {
      "inputs": [],
      "name": "getNextToWrite",
      "outputs": [
        {
          "internalType": "address",
          "name": "",
          "type": "address"
        }
      ],
      "stateMutability": "view",
      "type": "function"
    },
    {
      "inputs": [],
      "name": "getParticipants",
      "outputs": [
        {
          "internalType": "address[]",
          "name": "",
          "type": "address[]"
        }
      ],
      "stateMutability": "view",
      "type": "function"
    },
    {
      "inputs": [],
      "name": "getState",
      "outputs": [
        {
          "internalType": "bytes",
          "name": "",
          "type": "bytes"
        }
      ],
      "stateMutability": "view",
      "type": "function"
    },
    {
      "inputs": [],
      "name": "getSum",
      "outputs": [
        {
          "internalType": "uint256",
          "name": "",
          "type": "uint256"
        }
      ],
      "stateMutability": "view",
      "type": "function"
    },
    {
      "inputs": [
        {
          "components": [
            {
              "internalType": "bytes32",
              "name": "channelId",
              "type": "bytes32"
            },
            {
              "internalType": "address",
              "name": "participant",
              "type": "address"
            },
            {
              "internalType": "uint256",
              "name": "amount",
              "type": "uint256"
            },
            {
              "internalType": "uint256",
              "name": "deadlineTimestamp",
              "type": "uint256"
            },
            {
              "internalType": "bytes",
              "name": "data",
              "type": "bytes"
            }
          ],
          "internalType": "struct JoinChannel",
          "name": "joinChannel",
          "type": "tuple"
        }
      ],
      "name": "joinChannel",
      "outputs": [
        {
          "internalType": "bool",
          "name": "",
          "type": "bool"
        }
      ],
      "stateMutability": "nonpayable",
      "type": "function"
    },
    {
      "inputs": [
        {
          "internalType": "address",
          "name": "adr",
          "type": "address"
        }
      ],
      "name": "removeParticipant",
      "outputs": [
        {
          "internalType": "bool",
          "name": "",
          "type": "bool"
        },
        {
          "components": [
            {
              "internalType": "address",
              "name": "participant",
              "type": "address"
            },
            {
              "internalType": "uint256",
              "name": "amount",
              "type": "uint256"
            },
            {
              "internalType": "bytes",
              "name": "data",
              "type": "bytes"
            }
          ],
          "internalType": "struct ProcessExit",
          "name": "",
          "type": "tuple"
        }
      ],
      "stateMutability": "nonpayable",
      "type": "function"
    },
    {
      "inputs": [
        {
          "internalType": "bytes",
          "name": "encodedState",
          "type": "bytes"
        }
      ],
      "name": "setState",
      "outputs": [],
      "stateMutability": "nonpayable",
      "type": "function"
    },
    {
      "inputs": [
        {
          "internalType": "address",
          "name": "adr",
          "type": "address"
        }
      ],
      "name": "slashParticipant",
      "outputs": [
        {
          "internalType": "bool",
          "name": "",
          "type": "bool"
        },
        {
          "components": [
            {
              "internalType": "address",
              "name": "participant",
              "type": "address"
            },
            {
              "internalType": "uint256",
              "name": "amount",
              "type": "uint256"
            },
            {
              "internalType": "bytes",
              "name": "data",
              "type": "bytes"
            }
          ],
          "internalType": "struct ProcessExit",
          "name": "",
          "type": "tuple"
        }
      ],
      "stateMutability": "nonpayable",
      "type": "function"
    },
    {
      "inputs": [
        {
          "components": [
            {
              "components": [
                {
                  "internalType": "bytes32",
                  "name": "channelId",
                  "type": "bytes32"
                },
                {
                  "internalType": "address",
                  "name": "participant",
                  "type": "address"
                },
                {
                  "internalType": "uint256",
                  "name": "forkCnt",
                  "type": "uint256"
                },
                {
                  "internalType": "uint256",
                  "name": "transactionCnt",
                  "type": "uint256"
                },
                {
                  "internalType": "uint256",
                  "name": "timestamp",
                  "type": "uint256"
                }
              ],
              "internalType": "struct TransactionHeader",
              "name": "header",
              "type": "tuple"
            },
            {
              "components": [
                {
                  "internalType": "enum TransactionType",
                  "name": "transactionType",
                  "type": "uint8"
                },
                {
                  "internalType": "bytes",
                  "name": "encodedData",
                  "type": "bytes"
                },
                {
                  "internalType": "bytes",
                  "name": "data",
                  "type": "bytes"
                }
              ],
              "internalType": "struct TransactionBody",
              "name": "body",
              "type": "tuple"
            }
          ],
          "internalType": "struct Transaction",
          "name": "transaction",
          "type": "tuple"
        }
      ],
      "name": "stateTransition",
      "outputs": [
        {
          "internalType": "bool",
          "name": "",
          "type": "bool"
        }
      ],
      "stateMutability": "nonpayable",
      "type": "function"
    }
  ],
  "bytecode": "0x60808060405234601557610ef5908161001b8239f35b600080fdfe6080604052600436101561001257600080fd5b60003560e01c80630ee445171461090d5780631003e2d2146107e95780631865c57d1461078b578063569c5f6d1461076d5780635aa68ac0146106f75780635f6fde9f146106a1578063668a20011461063357806373947f11146101a557806396149eb8146100bc5763fa5fbe441461008a57600080fd5b346100b75760003660031901126100b75760206100a5610d88565b6040516001600160a01b039091168152f35b600080fd5b346100b75760203660031901126100b7576004356001600160401b0381116100b75760a060031982360301126100b7576040519060a082018281106001600160401b0382111761018f576040526004810135825260248101356001600160a01b03811681036100b7576020830152604481013560408301526064810135606083015260848101356001600160401b0381116100b75760809160046101639236920101610b37565b91015260085461017960ff8260a01c1615610c14565b60ff60a01b191660085560405160008152602090f35b634e487b7160e01b600052604160045260246000fd5b346100b75760203660031901126100b7576004356001600160401b0381116100b757806004019060c060031982360301126100b7576008546101ed60ff8260a01c1615610c14565b60ff60a01b1916600160a01b1760085581356000556001600160a01b03602482013590811691908290036100b757600180546001600160a01b03191690921790915560448101356002556064810135600355608481013560045560a4016102548183610cf9565b91823592600a8410156100b75760009360ff80196005541691161760055561027f6020820182610d0e565b906001600160401b03821161061f57600654600181811c91168015610615575b602082101461060157601f81116105b3575b508590601f831160011461052c576102ed939291879183610521575b50508160011b916000199060031b1c1916176006555b6040810190610d0e565b906001600160401b03821161050d57600754600181811c91168015610503575b60208210146104ef579081601f8795949311610496575b508390601f83116001146104075792826102e3938697936103609688926103fc575b50508160011b916000199060031b1c191617600755610cf9565b908160405192839283378101838152039082305af1903d156103f6573d9061038782610b1c565b916103956040519384610afb565b825260203d92013e5b156103bc576008805460ff60a01b1916905560405160018152602090f35b60405162461bcd60e51b8152602060048201526012602482015271151c985b9cd858dd1a5bdb8819985a5b195960721b6044820152606490fd5b5061039e565b013590508980610346565b600785527fa66cc928b5edb82af9bd49922954155ab7b0942694bea4ce44661d9a8736c68891601f198416865b81811061047b5750938697936103609693600193836102e39810610461575b505050811b01600755610cf9565b0135600019600384901b60f8161c19169055898080610453565b82840135855589975060019094019360209283019201610434565b600785526104df907fa66cc928b5edb82af9bd49922954155ab7b0942694bea4ce44661d9a8736c688601f850160051c810191602086106104e5575b601f0160051c0190610d40565b86610324565b90915081906104d2565b634e487b7160e01b86526022600452602486fd5b90607f169061030d565b634e487b7160e01b85526041600452602485fd5b0135905087806102cd565b600687527ff652222313e28459528d920b65115c16c04f3efc82aaedc97be59f3f377c0d3f91601f198416885b81811061059b57509160019391856102ed97969410610581575b505050811b016006556102e3565b0135600019600384901b60f8161c19169055878080610573565b91936020600181928787013581550195019201610559565b600687526105fb907ff652222313e28459528d920b65115c16c04f3efc82aaedc97be59f3f377c0d3f601f850160051c810191602086106104e557601f0160051c0190610d40565b866102b1565b634e487b7160e01b87526022600452602487fd5b90607f169061029f565b634e487b7160e01b86526041600452602486fd5b346100b75760203660031901126100b75761068061064f610bbf565b610657610cc8565b5060085461066b60ff8260a01c1615610c14565b60ff60a01b1916600160a01b17600855610dc3565b6008805460ff60a01b1916905560405191829161069d9183610bd5565b0390f35b346100b75760203660031901126100b7576106806106bd610bbf565b6106c5610cc8565b506008546106d960ff8260a01c1615610c14565b60ff60a01b1916600160a01b176008556106f1610cc8565b50610dc3565b346100b75760003660031901126100b75760405161071f8161071881610c83565b0382610afb565b60405180916020820160208352815180915260206040840192019060005b81811061074b575050500390f35b82516001600160a01b031684528594506020938401939092019160010161073d565b346100b75760003660031901126100b7576020600954604051908152f35b346100b75760003660031901126100b75761069d6040516020808201526009546040820152604060608201526107d5816107c760808201610c83565b03601f198101835282610afb565b604051918291602083526020830190610b7e565b346100b75760203660031901126100b757600154600435906001600160a01b0390811690610815610d88565b16036108af576108686020916009547f099a8fd2a0841afbe8000d711d763bf2c54b2c63bed7b7f92a244ef4f515453660606108518484610c60565b6040519084825285888301526040820152a1610c60565b806009557faab9c94a7e84edf667aad8a2d0808d3368621427050681a45d192e369486a53b82610896610d88565b6040516001600160a01b039091168152a1604051908152f35b60405162461bcd60e51b815260206004820152603060248201527f4d61746853746174654d616368696e653a20616464206f6e6c79206e6578742060448201526f706c617965722063616e20777269746560801b6064820152608490fd5b346100b75760203660031901126100b7576004356001600160401b0381116100b75761093d903690600401610b37565b60085461095060ff8260a01c1615610c14565b60ff60a01b1916600160a01b1760085580516020908201818101929091818303126100b7576020810151906001600160401b0382116100b7570190604090829003126100b75760405190604082018281106001600160401b0382111761018f576040526020810151825260408101516001600160401b0381116100b75760209101019082601f830112156100b7578151916001600160401b03831161018f578260051b9360405193610a056020870186610afb565b84526020840191602083968201019182116100b757602001915b818310610adb575050508160208201525160095551906001600160401b03821161018f57600160401b821161018f57600a5482600a55808310610aa0575b5090600a60005260206000209160005b828110610a83576008805460ff60a01b19169055005b81516001600160a01b031681850155602090910190600101610a6d565b600a600052610ad5907fc65a7bb8d6351c1cf70c95a316cc6a92839c986682d98bc35f958f4883f9d2a8908101908401610d40565b82610a5d565b82516001600160a01b03811681036100b757815260209283019201610a1f565b90601f801991011681019081106001600160401b0382111761018f57604052565b6001600160401b03811161018f57601f01601f191660200190565b81601f820112156100b757803590610b4e82610b1c565b92610b5c6040519485610afb565b828452602083830101116100b757816000926020809301838601378301015290565b919082519283825260005b848110610baa575050826000602080949584010152601f8019910116010190565b80602080928401015182828601015201610b89565b600435906001600160a01b03821682036100b757565b906040610c119360a09215158452816020850152600180841b038151168285015260208101516060850152015191606060808201520190610b7e565b90565b15610c1b57565b60405162461bcd60e51b815260206004820152601f60248201527f5265656e7472616e637947756172643a207265656e7472616e742063616c6c006044820152606490fd5b91908201809211610c6d57565b634e487b7160e01b600052601160045260246000fd5b6020600a54918281520190600a60005260206000209060005b818110610ca95750505090565b82546001600160a01b0316845260209093019260019283019201610c9c565b60405190606082018281106001600160401b0382111761018f57604052606060408360008152600060208201520152565b903590605e19813603018212156100b7570190565b903590601e19813603018212156100b757018035906001600160401b0382116100b7576020019181360383136100b757565b818110610d4b575050565b60008155600101610d40565b600a54811015610d7257600a60005260206000200190600090565b634e487b7160e01b600052603260045260246000fd5b600a548015610db357610d9e9060095406610d57565b905460039190911b1c6001600160a01b031690565b506001546001600160a01b031690565b90610dcc610cc8565b50600a5490610dd9610cc8565b9260005b838110610ded5750600093925050565b610df681610d57565b90546001600160a01b038481169260031b9190911c168114610e1b5750600101610ddd565b92939091506000198101908111610c6d57610e38610e5091610d57565b905460039190911b1c6001600160a01b031691610d57565b81546001600160a01b0360039290921b91821b191692901b919091179055600a548015610ea95760001901610e8481610d57565b81549060018060a01b039060031b1b19169055600a5582526000602083015260019190565b634e487b7160e01b600052603160045260246000fdfea2646970667358221220b1b91173a2efd5ca2bda6600f39e152792897912372941ae9b033b8ccaa7b5a664736f6c634300081a0033",
  "linkReferences": {},
  "deployedLinkReferences": {}
}