{
  "_format": "hh-sol-artifact-1",
  "contractName": "TicTacToeStateMachine",
  "sourceName": "contracts/TicTacToe/TicTacToeStateMachine.sol",
  "abi": [
    {
      "anonymous": false,
      "inputs": [
        {
          "indexed": false,
          "internalType": "enum Cell",
          "name": "winner",
          "type": "uint8"
        }
      ],
      "name": "GameOver",
      "type": "event"
    },
    {
      "anonymous": false,
      "inputs": [
        {
          "indexed": false,
          "internalType": "address",
          "name": "player",
          "type": "address"
        },
        {
          "indexed": false,
          "internalType": "uint8",
          "name": "row",
          "type": "uint8"
        },
        {
          "indexed": false,
          "internalType": "uint8",
          "name": "col",
          "type": "uint8"
        },
        {
          "indexed": false,
          "internalType": "enum Cell",
          "name": "cell",
          "type": "uint8"
        }
      ],
      "name": "MoveMade",
      "type": "event"
    },
    {
      "anonymous": false,
      "inputs": [
        {
          "indexed": false,
          "internalType": "address",
          "name": "participant",
          "type": "address"
        },
        {
          "indexed": false,
          "internalType": "uint256",
          "name": "amount",
          "type": "uint256"
        }
      ],
      "name": "RemovedParticipant",
      "type": "event"
    },
    {
      "inputs": [
        {
          "internalType": "address",
          "name": "adr",
          "type": "address"
        }
      ],
      "name": "getBalance",
      "outputs": [
        {
          "internalType": "uint256",
          "name": "",
          "type": "uint256"
        }
      ],
      "stateMutability": "view",
      "type": "function"
    },
    {
      "inputs": [],
      "name": "getBoard",
      "outputs": [
        {
          "internalType": "enum Cell[3][3]",
          "name": "",
          "type": "uint8[3][3]"
        }
      ],
      "stateMutability": "view",
      "type": "function"
    },
    {
      "inputs": [],
      "name": "getNextToWrite",
      "outputs": [
        {
          "internalType": "address",
          "name": "",
          "type": "address"
        }
      ],
      "stateMutability": "view",
      "type": "function"
    },
    {
      "inputs": [],
      "name": "getParticipants",
      "outputs": [
        {
          "internalType": "address[]",
          "name": "",
          "type": "address[]"
        }
      ],
      "stateMutability": "view",
      "type": "function"
    },
    {
      "inputs": [],
      "name": "getState",
      "outputs": [
        {
          "internalType": "bytes",
          "name": "",
          "type": "bytes"
        }
      ],
      "stateMutability": "view",
      "type": "function"
    },
    {
      "inputs": [
        {
          "components": [
            {
              "internalType": "bytes32",
              "name": "channelId",
              "type": "bytes32"
            },
            {
              "internalType": "address",
              "name": "participant",
              "type": "address"
            },
            {
              "internalType": "uint256",
              "name": "amount",
              "type": "uint256"
            },
            {
              "internalType": "uint256",
              "name": "deadlineTimestamp",
              "type": "uint256"
            },
            {
              "internalType": "bytes",
              "name": "data",
              "type": "bytes"
            }
          ],
          "internalType": "struct JoinChannel",
          "name": "joinChannel",
          "type": "tuple"
        }
      ],
      "name": "joinChannel",
      "outputs": [
        {
          "internalType": "bool",
          "name": "",
          "type": "bool"
        }
      ],
      "stateMutability": "nonpayable",
      "type": "function"
    },
    {
      "inputs": [
        {
          "internalType": "uint8",
          "name": "row",
          "type": "uint8"
        },
        {
          "internalType": "uint8",
          "name": "col",
          "type": "uint8"
        }
      ],
      "name": "makeMove",
      "outputs": [],
      "stateMutability": "nonpayable",
      "type": "function"
    },
    {
      "inputs": [
        {
          "internalType": "address",
          "name": "adr",
          "type": "address"
        }
      ],
      "name": "removeParticipant",
      "outputs": [
        {
          "internalType": "bool",
          "name": "",
          "type": "bool"
        },
        {
          "components": [
            {
              "internalType": "address",
              "name": "participant",
              "type": "address"
            },
            {
              "internalType": "uint256",
              "name": "amount",
              "type": "uint256"
            },
            {
              "internalType": "bytes",
              "name": "data",
              "type": "bytes"
            }
          ],
          "internalType": "struct ProcessExit",
          "name": "",
          "type": "tuple"
        }
      ],
      "stateMutability": "nonpayable",
      "type": "function"
    },
    {
      "inputs": [
        {
          "internalType": "bytes",
          "name": "encodedState",
          "type": "bytes"
        }
      ],
      "name": "setState",
      "outputs": [],
      "stateMutability": "nonpayable",
      "type": "function"
    },
    {
      "inputs": [
        {
          "internalType": "address",
          "name": "adr",
          "type": "address"
        }
      ],
      "name": "slashParticipant",
      "outputs": [
        {
          "internalType": "bool",
          "name": "",
          "type": "bool"
        },
        {
          "components": [
            {
              "internalType": "address",
              "name": "participant",
              "type": "address"
            },
            {
              "internalType": "uint256",
              "name": "amount",
              "type": "uint256"
            },
            {
              "internalType": "bytes",
              "name": "data",
              "type": "bytes"
            }
          ],
          "internalType": "struct ProcessExit",
          "name": "",
          "type": "tuple"
        }
      ],
      "stateMutability": "nonpayable",
      "type": "function"
    },
    {
      "inputs": [
        {
          "components": [
            {
              "components": [
                {
                  "internalType": "bytes32",
                  "name": "channelId",
                  "type": "bytes32"
                },
                {
                  "internalType": "address",
                  "name": "participant",
                  "type": "address"
                },
                {
                  "internalType": "uint256",
                  "name": "forkCnt",
                  "type": "uint256"
                },
                {
                  "internalType": "uint256",
                  "name": "transactionCnt",
                  "type": "uint256"
                },
                {
                  "internalType": "uint256",
                  "name": "timestamp",
                  "type": "uint256"
                }
              ],
              "internalType": "struct TransactionHeader",
              "name": "header",
              "type": "tuple"
            },
            {
              "components": [
                {
                  "internalType": "enum TransactionType",
                  "name": "transactionType",
                  "type": "uint8"
                },
                {
                  "internalType": "bytes",
                  "name": "encodedData",
                  "type": "bytes"
                },
                {
                  "internalType": "bytes",
                  "name": "data",
                  "type": "bytes"
                }
              ],
              "internalType": "struct TransactionBody",
              "name": "body",
              "type": "tuple"
            }
          ],
          "internalType": "struct Transaction",
          "name": "transaction",
          "type": "tuple"
        }
      ],
      "name": "stateTransition",
      "outputs": [
        {
          "internalType": "bool",
          "name": "",
          "type": "bool"
        }
      ],
      "stateMutability": "nonpayable",
      "type": "function"
    }
  ],
  "bytecode": "0x60808060405234601557611f02908161001b8239f35b600080fdfe6080604052600436101561001257600080fd5b60003560e01c80630ee44517146100c75780631865c57d146100c25780633264a34b146100bd5780635aa68ac0146100b85780635e24b0f1146100b35780635f6fde9f146100ae578063668a2001146100a957806373947f11146100a457806396149eb81461009f578063f8b2cb4f1461009a5763fa5fbe441461009557600080fd5b610ed7565b610e3f565b610da0565b610aeb565b610a9a565b610a23565b6105ea565b61055b565b6104bf565b61034b565b6101b6565b634e487b7160e01b600052604160045260246000fd5b606081019081106001600160401b038211176100fd57604052565b6100cc565b60a081019081106001600160401b038211176100fd57604052565b90601f801991011681019081106001600160401b038211176100fd57604052565b6040519061014d60e08361011d565b565b6001600160401b0381116100fd57601f01601f191660200190565b81601f820112156101b1578035906101818261014f565b9261018f604051948561011d565b828452602083830101116101b157816000926020809301838601378301015290565b600080fd5b346101b15760203660031901126101b1576004356001600160401b0381116101b1576101e690369060040161016a565b6008546101f960ff8260a01c1615610f04565b60ff60a01b1916600160a01b17600855805181019060208083019190818403126101b1576020810151906001600160401b0382116101b15701916101e090839003126101b15761024761013e565b9060208301516001600160401b0381116101b15781602061026a92860101611548565b82526040830151926001600160401b0384116101b1576102a7826102996101e09460206102e7988601016115af565b60208601526060830161160c565b60408401526102b9610180820161153d565b60608401526102cb6101a082016116b2565b60808401526101c081015160a0840152015160c08201526117aa565b6008805460ff60a01b19169055005b919082519283825260005b848110610322575050826000602080949584010152601f8019910116010190565b80602080928401015182828601015201610301565b9060206103489281815201906102f6565b90565b346101b15760003660031901126101b1576040516020808201526101e0604082015261037a6102208201610f50565b818103603f19016060830152600a80548083526000918252602090920191600080516020611ead833981519152915b81811061041c576104188561040c81876103c560808301610fd1565b600e546001600160a01b0381166101a08401526103ec9060a01c60ff1615156101c0840152565b600f546101e083015260105461020083015203601f19810183528261011d565b60405191829182610337565b0390f35b82548452602090930192600192830192016103a9565b634e487b7160e01b600052602160045260246000fd5b6003111561045257565b610432565b9060038210156104525752565b91906101208301926000905b6003821061047d57505050565b8251600090825b600383106104a2575050506020606060019201930191019091610470565b602080826104b36001948651610457565b01920192019190610484565b346101b15760003660031901126101b15760405160606104df818361011d565b60005b81811061053d576040516104f5816100e2565b600b6000825b6003821061051157604051806104188682610464565b60016020819260405161052f81610528818a610f95565b038261011d565b8152019301910190916104fb565b60209060405161054d848261011d565b8336823781850152016104e2565b346101b15760003660031901126101b15760405161057c8161052881610f50565b60405180916020820160208352815180915260206040840192019060005b8181106105a8575050500390f35b82516001600160a01b031684528594506020938401939092019160010161059a565b6004359060ff821682036101b157565b6024359060ff821682036101b157565b346101b15760403660031901126101b1576106036105ca565b61060b6105da565b600154600e54919291906001600160a01b03908116908216036109a15760ff8160a01c16156109675761068f90600360ff8416108061095a575b61064e90610ffd565b6106836106746106678661066187611058565b5061106a565b905460ff9160031b1c1690565b61067d81610448565b15611083565b6001600160a01b031690565b6106b261068361069d6110ca565b905460039190911b1c6001600160a01b031690565b6001600160a01b0390911603610950576106db60015b6106d58461066185611058565b906111c0565b6106ee6106e9600f546111fe565b600f55565b7f83266dccf22adc9a289b947b87c46af82ecc482f96a07bf4aa62b8c91f6aedc66107316107226106678561066186611058565b60405191829186863385611212565b0390a161073e828261189a565b156108be576108396106677fe30a7197f4bcf77a0500f4d49e711083bfc4107c06942bf9ca7dd2d678fefab7936106616108459461078460ff60a01b19600e5416600e55565b60016107966106678561066185611058565b61079f81610448565b03610853576010546107bc6107b2611139565b90549060031b1c90565b81111561084a575061082c6107d26107b2611139565b61080b6107dd611118565b6107f4846107ef8385549060031b1c90565b61127d565b825460001960039390931b92831b1916911b179055565b6107f4610816611139565b9190926108278385549060031b1c90565b611262565b610834611b84565b611058565b60405191829182611243565b0390a1005b61082c906107d2565b6010546108616107b2611118565b8111156108b557506108b06108776107b2611118565b610894610882611118565b6107f4846108278385549060031b1c90565b6107f461089f611139565b9190926107ef8385549060031b1c90565b61082c565b6108b090610877565b5050600f54600981036109145750600e805460ff60a01b191690556108e1611b84565b604051600081527fe30a7197f4bcf77a0500f4d49e711083bfc4107c06942bf9ca7dd2d678fefab7908060208101610845565b61092c61069d61092761094e9360011690565b6110fd565b600e80546001600160a01b0319166001600160a01b0392909216919091179055565b005b6106db60026106c8565b50600360ff851610610645565b60405162461bcd60e51b815260206004820152601260248201527147616d65206973206e6f742061637469766560701b6044820152606490fd5b60405162461bcd60e51b815260206004820152600d60248201526c2737ba103cb7bab9103a3ab93760991b6044820152606490fd5b6001600160a01b038116036101b157565b9060406103489360a09215158452816020850152600180841b0381511682850152602081015160608501520151916060608082015201906102f6565b346101b15760203660031901126101b157610a7d600435610a43816109d6565b610a4b61128a565b50600854610a5f60ff8260a01c1615610f04565b60ff60a01b1916600160a01b17600855610a7761128a565b50611d58565b6008805460ff60a01b1916905560405191829161041891836109e7565b346101b15760203660031901126101b157610a7d600435610aba816109d6565b610ac261128a565b50600854610ad660ff8260a01c1615610f04565b60ff60a01b1916600160a01b17600855611d58565b346101b15760203660031901126101b1576004356001600160401b0381116101b157806004019060c060031982360301126101b15760a490600854610b3660ff8260a01c1615610f04565b60ff60a01b1916600160a01b176008558235600055610b7e6024820135610b5c816109d6565b600180546001600160a01b0319166001600160a01b0392909216919091179055565b60448101356002556064810135600355608481013560045501610ba181836112ab565b90813592600a8410156101b15760009360ff801960055416911617600555610bcc60208401846112c0565b6001600160401b0381959295116100fd578594610bf382610bee6006546112f2565b611343565b8590601f8311600114610d0a57610c4b9593610c3284610c369795610c4695610c40958c92610cff575b50508160011b916000199060031b1c19161790565b6006555b60408101906112c0565b906113c2565b6112ab565b90610c5b6040518093819361149c565b039082305af1610c696114aa565b908015610c94576008805460ff60a01b19169055610418905b60405190151581529081906020820190565b50805115610ca457805190602001fd5b60405162461bcd60e51b815260206004820152602d60248201527f4153746174654d616368696e65202d2043616c6c206661696c6564202d20726560448201526c073756c74206c656e676874203609c1b6064820152608490fd5b013590503880610c1d565b60066000527ff652222313e28459528d920b65115c16c04f3efc82aaedc97be59f3f377c0d3f91601f198416885b818110610d85575084610c4694610c4094610c4b9a9894610c369a9860019510610d6b575b505050811b01600655610c36565b0135600019600384901b60f8161c19169055388080610d5d565b8284013585558a995060019094019360209283019201610d38565b346101b15760203660031901126101b1576004356001600160401b0381116101b15760a060031982360301126101b15760405190610ddd82610102565b806004013582526024810135610df2816109d6565b602083015260448101356040830152606481013560608301526084810135916001600160401b0383116101b157610e35610c82926004610418953692010161016a565b60808201526114da565b346101b15760203660031901126101b157600435610e5c816109d6565b60095415610ecb5760096000527f6e1540171b6c0c960b71a7020d9f60077f6af931a8bbf590da0223dacf75c7af546001600160a01b03918216911603610ed05760005b600a54811015610ecb57600a600052600080516020611ead8339815191520154604051908152602090f35b611042565b6001610ea0565b346101b15760003660031901126101b1576020610ef2611500565b6040516001600160a01b039091168152f35b15610f0b57565b60405162461bcd60e51b815260206004820152601f60248201527f5265656e7472616e637947756172643a207265656e7472616e742063616c6c006044820152606490fd5b6020600954918281520190600960005260206000209060005b818110610f765750505090565b82546001600160a01b0316845260209093019260019283019201610f69565b90610fcd60609254610faa8360ff8316610457565b610fbd6020840160ff8360081c16610457565b60ff604084019160101c16610457565b0190565b600b906000905b60038210610fe557505050565b6001610ff2819285610f95565b930191019091610fd8565b1561100457565b60405162461bcd60e51b815260206004820152601660248201527524b73b30b634b2103137b0b932103837b9b4ba34b7b760511b6044820152606490fd5b634e487b7160e01b600052603260045260246000fd5b6003811015610ecb57600b0190600090565b9190916003831015610ecb57601f908360051c01921690565b1561108a57565b60405162461bcd60e51b815260206004820152601860248201527710d95b1b081a5cc8185b1c9958591e481bd8d8dd5c1a595960421b6044820152606490fd5b60095415610ecb57600960009081527f6e1540171b6c0c960b71a7020d9f60077f6af931a8bbf590da0223dacf75c7af91565b600954811015610ecb57600960005260206000200190600090565b600a5415610ecb57600a6000908152600080516020611ead83398151915291565b600a5460011015610ecb57600a60009081527fc65a7bb8d6351c1cf70c95a316cc6a92839c986682d98bc35f958f4883f9d2a991565b60095460011015610ecb57600960009081527f6e1540171b6c0c960b71a7020d9f60077f6af931a8bbf590da0223dacf75c7b091565b600a54811015610ecb57600a60005260206000200190600090565b916003811015610452576111e49183549060ff809160031b9316831b921b19161790565b9055565b634e487b7160e01b600052601160045260246000fd5b600019811461120d5760010190565b6111e8565b6001600160a01b03909116815260ff91821660208201529116604082015260808101929161014d9160600190610457565b60208101929161014d9190610457565b60001981019190821161120d57565b9190820391821161120d57565b906001820180921161120d57565b9190820180921161120d57565b60405190611297826100e2565b606060408360008152600060208201520152565b903590605e19813603018212156101b1570190565b903590601e19813603018212156101b157018035906001600160401b0382116101b1576020019181360383136101b157565b90600182811c92168015611322575b602083101461130c57565b634e487b7160e01b600052602260045260246000fd5b91607f1691611301565b818110611337575050565b6000815560010161132c565b90601f8211611350575050565b61014d9160066000526020600020906020601f840160051c8301931061137e575b601f0160051c019061132c565b9091508190611371565b9190601f811161139757505050565b61014d926000526020600020906020601f840160051c8301931061137e57601f0160051c019061132c565b91906001600160401b0381116100fd576113e8816113e16007546112f2565b6007611388565b6000601f821160011461141d5781906114189394600092610cff5750508160011b916000199060031b1c19161790565b600755565b6007600052601f198216937fa66cc928b5edb82af9bd49922954155ab7b0942694bea4ce44661d9a8736c68891805b868110611484575083600195961061146a575b505050811b01600755565b0135600019600384901b60f8161c1916905538808061145f565b9092602060018192868601358155019401910161144c565b908092918237016000815290565b3d156114d5573d906114bb8261014f565b916114c9604051938461011d565b82523d6000602084013e565b606090565b50600854906114ef60ff8360a01c1615610f04565b60ff60a01b19909116600855600090565b6009541561151757600e546001600160a01b031690565b6001546001600160a01b031690565b6001600160401b0381116100fd5760051b60200190565b519061014d826109d6565b9080601f830112156101b157815161155f81611526565b9261156d604051948561011d565b81845260208085019260051b8201019283116101b157602001905b8282106115955750505090565b6020809183516115a4816109d6565b815201910190611588565b9080601f830112156101b15781516115c681611526565b926115d4604051948561011d565b81845260208085019260051b8201019283116101b157602001905b8282106115fc5750505090565b81518152602091820191016115ef565b81601f820112156101b15760609060405192611628838561011d565b83906101208301928184116101b157915b83831061164857505050505090565b81601f840112156101b157604051611660868261011d565b808685018481116101b15791879286949294905b80821061168c57505081529301926020019050611639565b9193509193825160038110156101b1578160209291839252019201889391949294611674565b519081151582036101b157565b918181106116cc57505050565b61014d926000526020600020918201910161132c565b8151916001600160401b0383116100fd57600160401b83116100fd57602090611710848454818655856116bf565b0190600052602060002060005b83811061172a5750505050565b60019060208451940193818401550161171d565b906000905b6003821061175057505050565b8051600090815b6003811061177657505060206001928392865501930191019091611743565b909160206117a16001928486519161178d83610448565b9060ff809160031b9316831b921b19161790565b93019101611757565b908151918251926001600160401b0384116100fd57600160401b84116100fd576020906117df856009548160095560096116bf565b01926009600052602060002060005b82811061187d5750505060c091925061180c6020820151600a6116e2565b61181b6040820151600b61173e565b6060810151600e80546001600160a01b0319166001600160a01b0390921691909117905561186e61184f6080830151151590565b600e805460ff60a01b191691151560a01b60ff60a01b16919091179055565b60a0810151600f550151601055565b85516001600160a01b0316818301556020909501946001016117ee565b906118a482611058565b50546000929060ff166118bd6106678461066185611058565b906118c782610448565b6118d081610448565b1480611b4c575b80611b07575b611aff57600b6118f0610667848361106a565b6119006106678561066186611058565b9061190a82610448565b61191381610448565b1480611ac7575b80611a8f575b611a20578054600385901b1c60ff1661193f6106678561066186611058565b9061194982610448565b61195281610448565b1480611a5c575b80611a29575b611a20575460101c60ff1661197a6106678461066185611058565b9061198482610448565b61198d81610448565b1491826119ea575b826119aa575b50506119a45790565b50600190565b6119cf919250610667906106616119c986600d5460ff9160031b1c1690565b94611058565b906119d982610448565b6119e281610448565b14388061199b565b600c5490925060081c60ff16611a066106678461066185611058565b90611a1082610448565b611a1981610448565b1491611995565b50505050600190565b50600d5460101c60ff16611a436106678561066186611058565b90611a4d82610448565b611a5681610448565b1461195f565b50600c5460081c60ff16611a766106678561066186611058565b90611a8082610448565b611a8981610448565b14611959565b50611a9e61066784600d61106a565b611aae6106678561066186611058565b90611ab882610448565b611ac181610448565b14611920565b50611ad661066784600c61106a565b611ae66106678561066186611058565b90611af082610448565b611af981610448565b1461191a565b505050600190565b50611b236002611b1683611058565b505460ff9160031b1c1690565b611b336106678461066185611058565b90611b3d82610448565b611b4681610448565b146118dd565b50611b5b6001611b1683611058565b611b6b6106678461066185611058565b90611b7582610448565b611b7e81610448565b146118d7565b60005b600360ff821610611c535750611be3611ba161069d6110ca565b611bdb611baf61069d61116f565b611bb76110ca565b9080546001600160a01b0360039390931b83811b199091169290931690921b179055565b611bb761116f565b611c28611bf16107b2611118565b611c20611bff6107b2611139565b611c07611118565b90919082549060031b91821b91600019901b1916179055565b611c07611139565b611c3661092c61069d6110ca565b600e805460ff60a01b1916600160a01b17905561014d6000600f55565b60005b600360ff821610611c6d575060010160ff16611b87565b600181611c96611c8260ff9461066187611058565b815460ff60039290921b9190911b19169055565b0116611c56565b634e487b7160e01b600052603160045260246000fd5b6009548015611d0857600954600019820191600091831015610ecb576009918290527f6e1540171b6c0c960b71a7020d9f60077f6af931a8bbf590da0223dacf75c7ae0180546001600160a01b031916905555565b611c9d565b600a548015611d0857600019810190600a54821015610ecb57600a60008181527fc65a7bb8d6351c1cf70c95a316cc6a92839c986682d98bc35f958f4883f9d2a79092019190915555565b90611d6161128a565b5060095490611d6e61128a565b9260005b838110611d825750600093925050565b611d8e61069d826110fd565b6001600160a01b03838116911614611da857600101611d72565b92611e787f6961df51dafcd85edba8be07ab31403d623ff2b4135c06714decefdc54eb860b9394601054611dde6107b2836111a5565b811115611ea35750611e1e611df56107b2836111a5565b611e01610882846111a5565b6107f461089f611e19611e138661126f565b60011690565b6111a5565b6001600160a01b0384168752611c07611e726107b2611e19611e426107b2866111a5565b9660208c01978852611e65611e5c61069d61092784611253565b611bb7886110fd565b611e6d611cb3565b611253565b916111a5565b611e80611d0d565b51604080516001600160a01b03939093168352602083019190915290a160019190565b611e1e90611df556fec65a7bb8d6351c1cf70c95a316cc6a92839c986682d98bc35f958f4883f9d2a8a2646970667358221220efcce12ae6cc00091e7fb8b3fcab8dcb362406ed0444b73945e73122699043c664736f6c634300081a0033",
  "linkReferences": {},
  "deployedLinkReferences": {}
}