{
  "_format": "hh-sol-artifact-1",
  "contractName": "TicTacToeStateMachine",
  "sourceName": "contracts/TicTacToe/TicTacToeStateMachine.sol",
  "abi": [
    {
      "anonymous": false,
      "inputs": [
        {
          "indexed": false,
          "internalType": "enum Cell",
          "name": "winner",
          "type": "uint8"
        }
      ],
      "name": "GameOver",
      "type": "event"
    },
    {
      "anonymous": false,
      "inputs": [
        {
          "indexed": false,
          "internalType": "address",
          "name": "player",
          "type": "address"
        },
        {
          "indexed": false,
          "internalType": "uint8",
          "name": "row",
          "type": "uint8"
        },
        {
          "indexed": false,
          "internalType": "uint8",
          "name": "col",
          "type": "uint8"
        },
        {
          "indexed": false,
          "internalType": "enum Cell",
          "name": "cell",
          "type": "uint8"
        }
      ],
      "name": "MoveMade",
      "type": "event"
    },
    {
      "inputs": [],
      "name": "getBoard",
      "outputs": [
        {
          "internalType": "enum Cell[3][3]",
          "name": "",
          "type": "uint8[3][3]"
        }
      ],
      "stateMutability": "view",
      "type": "function"
    },
    {
      "inputs": [],
      "name": "getNextToWrite",
      "outputs": [
        {
          "internalType": "address",
          "name": "",
          "type": "address"
        }
      ],
      "stateMutability": "view",
      "type": "function"
    },
    {
      "inputs": [],
      "name": "getParticipants",
      "outputs": [
        {
          "internalType": "address[]",
          "name": "",
          "type": "address[]"
        }
      ],
      "stateMutability": "view",
      "type": "function"
    },
    {
      "inputs": [],
      "name": "getState",
      "outputs": [
        {
          "internalType": "bytes",
          "name": "",
          "type": "bytes"
        }
      ],
      "stateMutability": "view",
      "type": "function"
    },
    {
      "inputs": [
        {
          "components": [
            {
              "internalType": "bytes32",
              "name": "channelId",
              "type": "bytes32"
            },
            {
              "internalType": "address",
              "name": "participant",
              "type": "address"
            },
            {
              "internalType": "uint256",
              "name": "amount",
              "type": "uint256"
            },
            {
              "internalType": "uint256",
              "name": "deadlineTimestamp",
              "type": "uint256"
            },
            {
              "internalType": "bytes",
              "name": "data",
              "type": "bytes"
            }
          ],
          "internalType": "struct JoinChannel",
          "name": "joinChannel",
          "type": "tuple"
        }
      ],
      "name": "joinChannel",
      "outputs": [
        {
          "internalType": "bool",
          "name": "",
          "type": "bool"
        }
      ],
      "stateMutability": "nonpayable",
      "type": "function"
    },
    {
      "inputs": [
        {
          "internalType": "uint8",
          "name": "row",
          "type": "uint8"
        },
        {
          "internalType": "uint8",
          "name": "col",
          "type": "uint8"
        }
      ],
      "name": "makeMove",
      "outputs": [],
      "stateMutability": "nonpayable",
      "type": "function"
    },
    {
      "inputs": [
        {
          "internalType": "address",
          "name": "adr",
          "type": "address"
        }
      ],
      "name": "removeParticipant",
      "outputs": [
        {
          "internalType": "bool",
          "name": "",
          "type": "bool"
        },
        {
          "components": [
            {
              "internalType": "address",
              "name": "participant",
              "type": "address"
            },
            {
              "internalType": "uint256",
              "name": "amount",
              "type": "uint256"
            },
            {
              "internalType": "bytes",
              "name": "data",
              "type": "bytes"
            }
          ],
          "internalType": "struct ProcessExit",
          "name": "",
          "type": "tuple"
        }
      ],
      "stateMutability": "nonpayable",
      "type": "function"
    },
    {
      "inputs": [
        {
          "internalType": "bytes",
          "name": "encodedState",
          "type": "bytes"
        }
      ],
      "name": "setState",
      "outputs": [],
      "stateMutability": "nonpayable",
      "type": "function"
    },
    {
      "inputs": [
        {
          "internalType": "address",
          "name": "adr",
          "type": "address"
        }
      ],
      "name": "slashParticipant",
      "outputs": [
        {
          "internalType": "bool",
          "name": "",
          "type": "bool"
        },
        {
          "components": [
            {
              "internalType": "address",
              "name": "participant",
              "type": "address"
            },
            {
              "internalType": "uint256",
              "name": "amount",
              "type": "uint256"
            },
            {
              "internalType": "bytes",
              "name": "data",
              "type": "bytes"
            }
          ],
          "internalType": "struct ProcessExit",
          "name": "",
          "type": "tuple"
        }
      ],
      "stateMutability": "nonpayable",
      "type": "function"
    },
    {
      "inputs": [
        {
          "components": [
            {
              "components": [
                {
                  "internalType": "bytes32",
                  "name": "channelId",
                  "type": "bytes32"
                },
                {
                  "internalType": "address",
                  "name": "participant",
                  "type": "address"
                },
                {
                  "internalType": "uint256",
                  "name": "forkCnt",
                  "type": "uint256"
                },
                {
                  "internalType": "uint256",
                  "name": "transactionCnt",
                  "type": "uint256"
                },
                {
                  "internalType": "uint256",
                  "name": "timestamp",
                  "type": "uint256"
                }
              ],
              "internalType": "struct TransactionHeader",
              "name": "header",
              "type": "tuple"
            },
            {
              "components": [
                {
                  "internalType": "enum TransactionType",
                  "name": "transactionType",
                  "type": "uint8"
                },
                {
                  "internalType": "bytes",
                  "name": "encodedData",
                  "type": "bytes"
                },
                {
                  "internalType": "bytes",
                  "name": "data",
                  "type": "bytes"
                }
              ],
              "internalType": "struct TransactionBody",
              "name": "body",
              "type": "tuple"
            }
          ],
          "internalType": "struct Transaction",
          "name": "transaction",
          "type": "tuple"
        }
      ],
      "name": "stateTransition",
      "outputs": [
        {
          "internalType": "bool",
          "name": "",
          "type": "bool"
        }
      ],
      "stateMutability": "nonpayable",
      "type": "function"
    }
  ],
  "bytecode": "0x608080604052346015576119b9908161001b8239f35b600080fdfe6080604052600436101561001257600080fd5b60003560e01c80630ee44517146100b75780631865c57d146100b25780633264a34b146100ad5780635aa68ac0146100a85780635e24b0f1146100a35780635f6fde9f1461009e578063668a20011461009957806373947f111461009457806396149eb81461008f5763fa5fbe441461008a57600080fd5b610cf2565b610c53565b61099e565b61094d565b6108d6565b6105b9565b61052a565b61048e565b610357565b3461022e57602036600319011261022e576004356001600160401b03811161022e576100e79036906004016102bb565b6008546100fa60ff8260a01c1615610d1f565b60ff60a01b1916600160a01b17600855805160209082018181019290918183031261022e576020810151906001600160401b03821161022e5701906101a0908290031261022e576040519061014e82610249565b60208101516001600160401b03811161022e576020908201019280601f8501121561022e5783516001600160401b038111610233578060051b9460405191610199602088018461027f565b82526020808301968201019083821161022e57602001955b81871061021457610205866101a0876101d0888885526040830161127e565b60208401526101e26101608201611273565b60408401526101f46101808201611324565b60608401520151608082015261139d565b6008805460ff60a01b19169055005b60208091885161022381610889565b8152019601956101b1565b600080fd5b634e487b7160e01b600052604160045260246000fd5b60a081019081106001600160401b0382111761023357604052565b606081019081106001600160401b0382111761023357604052565b90601f801991011681019081106001600160401b0382111761023357604052565b6001600160401b03811161023357601f01601f191660200190565b81601f8201121561022e578035906102d2826102a0565b926102e0604051948561027f565b8284526020838301011161022e57816000926020809301838601378301015290565b919082519283825260005b84811061032e575050826000602080949584010152601f8019910116010190565b8060208092840101518282860101520161030d565b906020610354928181520190610302565b90565b3461022e57600036600319011261022e576040516020808201526101a060408201526103866101e08201610d6b565b90600a6000606083015b600382106103e957600d546001600160a01b03811661018086015260a01c60ff1615156101a08501526103e5846103d98188600e546101c083015203601f19810183528261027f565b60405191829182610343565b0390f35b60016103f6819285610db0565b930191019091610390565b634e487b7160e01b600052602160045260246000fd5b6003111561042157565b610401565b9060038210156104215752565b91906101208301926000905b6003821061044c57505050565b8251600090825b6003831061047157505050602060606001920193019101909161043f565b602080826104826001948651610426565b01920192019190610453565b3461022e57600036600319011261022e5760405160606104ae818361027f565b60005b81811061050c576040516104c481610264565b600a6000825b600382106104e057604051806103e58682610433565b6001602081926040516104fe816104f7818a610db0565b038261027f565b8152019301910190916104ca565b60209060405161051c848261027f565b8336823781850152016104b1565b3461022e57600036600319011261022e5760405161054b816104f781610d6b565b60405180916020820160208352815180915260206040840192019060005b818110610577575050500390f35b82516001600160a01b0316845285945060209384019390920191600101610569565b6004359060ff8216820361022e57565b6024359060ff8216820361022e57565b3461022e57604036600319011261022e576105d2610599565b6105da6105a9565b600154600d54919291906001600160a01b03908116908216036108545760ff8160a01c161561081a5761065e90600360ff8416108061080d575b61061d90610dec565b6106526106436106368661063087610e47565b50610e5e565b905460ff9160031b1c1690565b61064c81610417565b15610e77565b6001600160a01b031690565b61068161065261066c610ebe565b905460039190911b1c6001600160a01b031690565b6001600160a01b0390911603610803576106aa60015b6106a48461063085610e47565b90610f42565b6106bd6106b8600e54610f80565b600e55565b7f83266dccf22adc9a289b947b87c46af82ecc482f96a07bf4aa62b8c91f6aedc66107006106f16106368561063086610e47565b60405191829186863385610f94565b0390a161070d8282611492565b15610771576107606106367fe30a7197f4bcf77a0500f4d49e711083bfc4107c06942bf9ca7dd2d678fefab79361063061076c9461075360ff60a01b19600d5416600d55565b61075b61177c565b610e47565b60405191829182610fc7565b0390a1005b5050600e54600981036107c75750600d805460ff60a01b1916905561079461177c565b604051600081527fe30a7197f4bcf77a0500f4d49e711083bfc4107c06942bf9ca7dd2d678fefab790806020810161076c565b6107df61066c6107da6108019360011690565b610ef1565b600d80546001600160a01b0319166001600160a01b0392909216919091179055565b005b6106aa6002610697565b50600360ff851610610614565b60405162461bcd60e51b815260206004820152601260248201527147616d65206973206e6f742061637469766560701b6044820152606490fd5b60405162461bcd60e51b815260206004820152600d60248201526c2737ba103cb7bab9103a3ab93760991b6044820152606490fd5b6001600160a01b0381160361022e57565b9060406103549360a09215158452816020850152600180841b038151168285015260208101516060850152015191606060808201520190610302565b3461022e57602036600319011261022e576109306004356108f681610889565b6108fe610fd7565b5060085461091260ff8260a01c1615610d1f565b60ff60a01b1916600160a01b1760085561092a610fd7565b506118ca565b6008805460ff60a01b191690556040519182916103e5918361089a565b3461022e57602036600319011261022e5761093060043561096d81610889565b610975610fd7565b5060085461098960ff8260a01c1615610d1f565b60ff60a01b1916600160a01b176008556118ca565b3461022e57602036600319011261022e576004356001600160401b03811161022e57806004019060c0600319823603011261022e5760a4906008546109e960ff8260a01c1615610d1f565b60ff60a01b1916600160a01b176008558235600055610a316024820135610a0f81610889565b600180546001600160a01b0319166001600160a01b0392909216919091179055565b60448101356002556064810135600355608481013560045501610a548183610ff8565b90813592600a84101561022e5760009360ff801960055416911617600555610a7f602084018461100d565b6001600160401b038195929511610233578594610aa682610aa160065461103f565b611090565b8590601f8311600114610bbd57610afe9593610ae584610ae99795610af995610af3958c92610bb2575b50508160011b916000199060031b1c19161790565b6006555b604081019061100d565b9061110f565b610ff8565b90610b0e604051809381936111e9565b039082305af1610b1c6111f7565b908015610b47576008805460ff60a01b191690556103e5905b60405190151581529081906020820190565b50805115610b5757805190602001fd5b60405162461bcd60e51b815260206004820152602d60248201527f4153746174654d616368696e65202d2043616c6c206661696c6564202d20726560448201526c073756c74206c656e676874203609c1b6064820152608490fd5b013590503880610ad0565b60066000527ff652222313e28459528d920b65115c16c04f3efc82aaedc97be59f3f377c0d3f91601f198416885b818110610c38575084610af994610af394610afe9a9894610ae99a9860019510610c1e575b505050811b01600655610ae9565b0135600019600384901b60f8161c19169055388080610c10565b8284013585558a995060019094019360209283019201610beb565b3461022e57602036600319011261022e576004356001600160401b03811161022e5760a0600319823603011261022e5760405190610c9082610249565b806004013582526024810135610ca581610889565b602083015260448101356040830152606481013560608301526084810135916001600160401b03831161022e57610ce8610b359260046103e595369201016102bb565b6080820152611227565b3461022e57600036600319011261022e576020610d0d61124d565b6040516001600160a01b039091168152f35b15610d2657565b60405162461bcd60e51b815260206004820152601f60248201527f5265656e7472616e637947756172643a207265656e7472616e742063616c6c006044820152606490fd5b6020600954918281520190600960005260206000209060005b818110610d915750505090565b82546001600160a01b0316845260209093019260019283019201610d84565b90610de860609254610dc58360ff8316610426565b610dd86020840160ff8360081c16610426565b60ff604084019160101c16610426565b0190565b15610df357565b60405162461bcd60e51b815260206004820152601660248201527524b73b30b634b2103137b0b932103837b9b4ba34b7b760511b6044820152606490fd5b634e487b7160e01b600052603260045260246000fd5b6003811015610e5957600a0190600090565b610e31565b9190916003831015610e5957601f908360051c01921690565b15610e7e57565b60405162461bcd60e51b815260206004820152601860248201527710d95b1b081a5cc8185b1c9958591e481bd8d8dd5c1a595960421b6044820152606490fd5b60095415610e5957600960009081527f6e1540171b6c0c960b71a7020d9f60077f6af931a8bbf590da0223dacf75c7af91565b600954811015610e5957600960005260206000200190600090565b60095460011015610e5957600960009081527f6e1540171b6c0c960b71a7020d9f60077f6af931a8bbf590da0223dacf75c7b091565b91600381101561042157610f669183549060ff809160031b9316831b921b19161790565b9055565b634e487b7160e01b600052601160045260246000fd5b6000198114610f8f5760010190565b610f6a565b6001600160a01b03909116815260ff918216602082015291166040820152608081019291610fc59160600190610426565b565b602081019291610fc59190610426565b60405190610fe482610264565b606060408360008152600060208201520152565b903590605e198136030182121561022e570190565b903590601e198136030182121561022e57018035906001600160401b03821161022e5760200191813603831361022e57565b90600182811c9216801561106f575b602083101461105957565b634e487b7160e01b600052602260045260246000fd5b91607f169161104e565b818110611084575050565b60008155600101611079565b90601f821161109d575050565b610fc59160066000526020600020906020601f840160051c830193106110cb575b601f0160051c0190611079565b90915081906110be565b9190601f81116110e457505050565b610fc5926000526020600020906020601f840160051c830193106110cb57601f0160051c0190611079565b91906001600160401b038111610233576111358161112e60075461103f565b60076110d5565b6000601f821160011461116a5781906111659394600092610bb25750508160011b916000199060031b1c19161790565b600755565b6007600052601f198216937fa66cc928b5edb82af9bd49922954155ab7b0942694bea4ce44661d9a8736c68891805b8681106111d157508360019596106111b7575b505050811b01600755565b0135600019600384901b60f8161c191690553880806111ac565b90926020600181928686013581550194019101611199565b908092918237016000815290565b3d15611222573d90611208826102a0565b91611216604051938461027f565b82523d6000602084013e565b606090565b506008549061123c60ff8360a01c1615610d1f565b60ff60a01b19909116600855600090565b6009541561126457600d546001600160a01b031690565b6001546001600160a01b031690565b5190610fc582610889565b81601f8201121561022e576060906040519261129a838561027f565b839061012083019281841161022e57915b8383106112ba57505050505090565b81601f8401121561022e576040516112d2868261027f565b8086850184811161022e5791879286949294905b8082106112fe575050815293019260200190506112ab565b91935091938251600381101561022e5781602092918392520192018893919492946112e6565b5190811515820361022e57565b906000905b6003821061134357505050565b8051600090815b6003811061136957505060206001928392865501930191019091611336565b909160206113946001928486519161138083610417565b9060ff809160031b9316831b921b19161790565b9301910161134a565b908151918251926001600160401b03841161023357600160401b84116102335760209060095485600955808610611474575b5001926009600052602060002060005b8281106114575750505060809192506113fd6020820151600a611331565b6040810151600d80546001600160a01b0319166001600160a01b039092169190911790556114506114316060830151151590565b600d805460ff60a01b191691151560a01b60ff60a01b16919091179055565b0151600e55565b85516001600160a01b0316828201556020909501946001016113df565b61148c90600960005286846000209182019101611079565b386113cf565b9061149c82610e47565b50546000929060ff166114b56106368461063085610e47565b906114bf82610417565b6114c881610417565b1480611744575b806116ff575b6116f757600a6114e86106368483610e5e565b6114f86106368561063086610e47565b9061150282610417565b61150b81610417565b14806116bf575b80611687575b611618578054600385901b1c60ff166115376106368561063086610e47565b9061154182610417565b61154a81610417565b1480611654575b80611621575b611618575460101c60ff166115726106368461063085610e47565b9061157c82610417565b61158581610417565b1491826115e2575b826115a2575b505061159c5790565b50600190565b6115c7919250610636906106306115c186600c5460ff9160031b1c1690565b94610e47565b906115d182610417565b6115da81610417565b143880611593565b600b5490925060081c60ff166115fe6106368461063085610e47565b9061160882610417565b61161181610417565b149161158d565b50505050600190565b50600c5460101c60ff1661163b6106368561063086610e47565b9061164582610417565b61164e81610417565b14611557565b50600b5460081c60ff1661166e6106368561063086610e47565b9061167882610417565b61168181610417565b14611551565b5061169661063684600c610e5e565b6116a66106368561063086610e47565b906116b082610417565b6116b981610417565b14611518565b506116ce61063684600b610e5e565b6116de6106368561063086610e47565b906116e882610417565b6116f181610417565b14611512565b505050600190565b5061171b600261170e83610e47565b505460ff9160031b1c1690565b61172b6106368461063085610e47565b9061173582610417565b61173e81610417565b146114d5565b50611753600161170e83610e47565b6117636106368461063085610e47565b9061176d82610417565b61177681610417565b146114cf565b60005b600360ff82161061180657506117db61179961066c610ebe565b6117d36117a761066c610f0c565b6117af610ebe565b9080546001600160a01b0360039390931b83811b199091169290931690921b179055565b6117af610f0c565b6117e96107df61066c610ebe565b600d805460ff60a01b1916600160a01b179055610fc56000600e55565b60005b600360ff821610611820575060010160ff1661177f565b60018161184961183560ff9461063087610e47565b815460ff60039290921b9190911b19169055565b0116611809565b600019810191908211610f8f57565b60095480156118b457600954600019820191600091831015610e59576009918290527f6e1540171b6c0c960b71a7020d9f60077f6af931a8bbf590da0223dacf75c7ae0180546001600160a01b031916905555565b634e487b7160e01b600052603160045260246000fd5b906118d3610fd7565b50600954906118e0610fd7565b9260005b8381106118f45750600093925050565b600954811015610e595760096000527f6e1540171b6c0c960b71a7020d9f60077f6af931a8bbf590da0223dacf75c7af8101546001600160a01b03838116911614611941576001016118e4565b611961906117af61195b61066c6107da6119769798611850565b91610ef1565b61196961185f565b6001600160a01b03168352565b600060208301526001919056fea26469706673582212209c1d8080c48901c078356bdad7ccf9e8266d10faafff5c0fdda1c3a3b8cc5de564736f6c634300081a0033",
  "linkReferences": {},
  "deployedLinkReferences": {}
}